:020000040800F2
:100000006806002035010008751800086D18000802
:10001000711800087502000861190008000000004E
:100020000000000000000000000000007D18000833
:100030001D0300080000000079180008811800085E
:100040004F0100084F0100084F0100084F01000850
:100050004F0100084F010008210300084F0100086C
:100060004F0100084F0100084F0100084F01000830
:100070004F0100084F0100084F0100084F01000820
:100080004F0100084F0100084F0100080000000068
:100090000000000000000000000000004F01000808
:1000A0004F0100084F0100084F0100084F010008F0
:1000B0004F0100084F0100084F0100084F010008E0
:1000C0004F0100084F0100084F0100084F010008D0
:1000D0004F0100084F010008551900084F010008A2
:1000E0004F0100084F0100084F0100080000000008
:1000F0000000000000000000000000000000000000
:1001000000000000000000000000000000000000EF
:1001100000000000000000004F0100084F0100082F
:10012000DFF80CD000F06EF8004800478519000891
:10013000680600200648804706480047FEE7FEE7BD
:10014000FEE7FEE7FEE7FEE7FEE7FEE7FEE7FEE787
:10015000851800082101000840EA01039B0703D02D
:1001600009E008C9121F08C0042AFAD203E011F8F6
:10017000013B00F8013B521EF9D27047D2B201E0B8
:1001800000F8012B491EFBD270470022F6E710B59C
:1001900013460A4604461946FFF7F0FF204610BDF5
:1001A0002DE9F05F0546002092469B4688460646AC
:1001B000814640241BE0284641464746224600F03F
:1001C00048F853465A46C01A914110D31146184672
:1001D000224600F02FF82D1A67EB01084F46224601
:1001E0000120002100F026F817EB00094E41201EE7
:1001F000A4F10104DFDC484631462A464346BDE807
:10020000F09F00001CB50948009009480190054680
:10021000009C06E0E06840F0010394E8070098477E
:100220001034AC42F6D3FFF77FFF00007C220008B9
:100230009C220008202A04DB203A00FA02F1002068
:1002400070479140C2F1200320FA03F31943904014
:100250007047202A04DB203A21FA02F0002170477F
:1002600021FA02F3D040C2F120029140084319461E
:1002700070470000FEE7000070B586B0002641F22E
:100280001800CDE90466CDE90266C4F202000168F7
:1002900040F6000441F4804101600168C4F20104A9
:1002A00001F4804101910199016802AD41F004011E
:1002B0000160016801F0040101910199016841F0B8
:1002C000040101600068294600F0040001900198D3
:1002D0004FF4007002900220CDE903060320059040
:1002E000204600F0B1FB4FF48060CDE902062046C5
:1002F000294600F0A9FB40F2781004F54051C2F203
:1003000000000C234FF4E13280E84600C0E90366A8
:10031000C0E9053601F074F906B070BD7047000001
:10032000704700002DE9F04186B0002641F2180028
:100330008DF80360CDE90466CDE90266C4F20200DF
:10034000016840F6004441F0080101600168C4F210
:10035000010401F0080101910199416802AD41F4E5
:100360008021416040684FF0010800F48020019036
:1003700001984FF4806002900220039003272046EA
:100380002946CDF81080059700F05EFB4FF4006021
:1003900002A981E841012046294600F055FBA4F559
:1003A000444040F20824C2F200044FF4E1310C2230
:1003B00084E843002046C4E90366C4E90526E661F3
:1003C00001F01EF9ADA001F0CBFEB8A00121002282
:1003D000002301F08FFD0DF10301204601221423BB
:1003E00001F0C8F940F2DC5000F01AFB40F20801BD
:1003F000C2F20001481E81F8018000BF10F8012FF1
:10040000013F86EA0206F9D140F20820C2F200005C
:1004100005221423CE7001F0ADF930B1014642F24D
:10042000FB10C0F6000001F065FD1E2000F0F8FA98
:1004300040F22401C2F20001022048704A1E00204E
:10044000032300BF12F8017F013B80EA0700F9D1C6
:10045000C87040F20820C2F200000522142301F007
:1004600089F930B1014642F2FB10C0F6000001F0FC
:1004700041FD1E2000F0D4FA40F20D04C2F2000447
:10048000012060704FF48070661EA4F80300002005
:100490000521324612F8013F013980EA0300F9D103
:1004A000607140F20820C2F20000214607221423A6
:1004B00001F060F930B1014642F2FB10C0F60000D5
:1004C00001F018FD1E2000F0ABFA40F22905C2F23F
:1004D0000005022068704FF480706F1EA5F80300BD
:1004E000002005213A4600BF12F8013F013980EA99
:1004F0000300F9D1687140F20820C2F200002946D9
:100500000722142301F036F930B1014642F2FB1004
:10051000C0F6000001F0EEFC1E2000F081FA71A090
:1005200001F01EFE012060704FF48070A4F80300FB
:100530000020052116F8012F013980EA0200F9D1C7
:10054000607140F20820C2F2000021460722142305
:1005500001F010F930B1014642F2FB10C0F6000084
:1005600001F0C8FC1E2000F05BFA022068704FF416
:100570008070A5F803000020052100BF17F8012FA7
:10058000013980EA0200F9D1687140F20820C2F214
:10059000000029460722142301F0ECF830B101468F
:1005A00042F2FB10C0F6000001F0A4FC1E2000F097
:1005B00037FA40F21D01C2F20001012048704FF4E9
:1005C000F040A1F803004A1E0020052312F8017F25
:1005D000013B80EA0700F9D1487140F20820C2F2DD
:1005E00000000722142301F0C5F830B1014642F2A1
:1005F000FB10C0F6000001F07DFC1E2000F010FA98
:1006000040F23901C2F20001022048704FF4F0407C
:10061000A1F803004A1E0020052300BF12F8017F45
:10062000013B80EA0700F9D1487140F20820C2F28C
:1006300000000722142301F09DF830B1014642F278
:10064000FB10C0F6000001F055FC1E2000F0E8F998
:1006500040F25800C2F200000021016040F25C004C
:10066000C2F20000016000F04DF842F26B20C0F6CB
:10067000000001F075FD06B0BDE8F081463332435D
:1006800020696E69743A20555341525433205042C8
:1006900031303D545820504231313D525820626132
:1006A00075643D3131353230300D00004633324310
:1006B000206366673A20766973696F6E3D25642012
:1006C00073706565645F6D6F64653D2564206D6161
:1006D0006E75616C5F706F735F746573743D2564D4
:1006E0000D0A000046333243207377697463682033
:1006F000746F20706F736974696F6E206D6F6465BD
:100700000D00000080B540F25800C2F20000006801
:1007100040F21401C2F2000101224A70020ECA70B6
:10072000020C0A71020A4A7188714A1E00200723CE
:1007300012F801CF013B80EA0C00F9D1C87140F2F8
:100740000820C2F200000922142301F013F830B18E
:10075000014642F2FB10C0F6000001F0CBFB40F274
:100760005C00C2F20000006840F23001C2F20001F9
:1007700002224A70020ECA70020C0A71020A4A7101
:1007800088714A1E0020072312F801CF013B80EA3E
:100790000C00F9D1C87140F20820C2F20000092211
:1007A000142300F0E7FF002808BF80BD014642F295
:1007B000FB10C0F60000BDE8804001F09BBB0000CC
:1007C0002DE9F04387B000F041FA40F24801C2F24F
:1007D00000010A68821A142A3CBF07B0BDE8F08302
:1007E000086040F2641540F25001C2F20005C2F206
:1007F00000012A690B6840F254089A42C2F20008CC
:1008000003D02A69C8F800000A6040F24C01C2F225
:100810000001AA780B6802F00104C31AB3F5FA7F4D
:1008200028D3086029692B7BB5F908E0B5F90A904F
:1008300040F25C0CD8F8002040F25806C2F2000CDE
:10084000C2F20006DCF80070A0EB020C0022366851
:10085000CDE9042242F21422C0F60002CDE902677B
:10086000074610462246CDE900E9CDF818C001F050
:1008700041FB3846D8F80010401AB0F5967F4FD8A3
:10088000002C4DD0287B28284AD328896FF00703F5
:10089000811C89B20529698938BF00208A1C92B25F
:1008A00000B2052A38BF0021404209B20828C1F130
:1008B00000014FF00802A8BF104610F1080FD8BF82
:1008C00018460829B8BF0A4640F25801C2F2000192
:1008D00012F1080FD8BF1A460B6840F25C07C2F24B
:1008E00000073E6818444FF67C43B0F5617FA8BF0F
:1008F0004FF46170CFF6FF73324410F5617FC8BFCB
:1009000003464FF63E60B2F5E17FCFF6FF700B6015
:10091000A8BF4FF4E17212F5E17FC8BF10463860FE
:1009200007B0BDE8F043FFF7EDBE0000014690F8C8
:100930002100022813D10868D1E90FC3026822F010
:100940000E020260026822F001020260012000FA39
:1009500003F2CCF8042081F82100002002E00420FA
:1009600088630120002281F82020704790F8211030
:10097000022923D1026840F2040C1168C4F2020C6F
:1009800021F00E01116013682F21C4F202018A4286
:1009900023F00103136015DD3023C4F202039A42F1
:1009A0001CD04423C4F202039A421AD05823C4F242
:1009B00002039A421AD14FF480331FE0042181636D
:1009C000012070470823C4F202039A420CD01C2372
:1009D000C4F202039A4209D110230FE04FF480734E
:1009E0000CE04FF4805309E0012307E00CF16801AB
:1009F0004FF080738A4208BF4FF480130121CCF876
:100A0000003080F82110416B0022002980F820205E
:100A100004BF0020704780B58847002080BD0000DB
:100A2000B0B5044600F012F9054640F24000C2F2AB
:100A300000000078611C18BF044400BF00F006F9F4
:100A4000401BA042FAD3B0BD2DE9F04F82B00E6832
:100A5000002E00F0F78041F20042C4F201020423AC
:100A600040F2004E904208BF03234FF6FF7CC4F2D1
:100A7000010E009300240123C1F2100C4FF0000A74
:100A80004FF000094AE041F20002C4F20102009F67
:100A9000904208BF022704F00C030F229A402BEA71
:100AA000020207FA03F34FEA9A051A4346F8252093
:100AB0004E6840F20C45F202DEF8082054BF22EAEC
:100AC000080242EA0802C4F20105CEF808202A68AA
:100AD000B30254BF22EA080242EA08022A60B303C2
:100AE000DEF8042054BF22EA080242EA0802F303B7
:100AF000CEF80420DEF800204FF0010354BF22EAB4
:100B0000080242EA0802CEF800200E680AF1010A43
:100B100036FA0AF204F1040400F0948003FA0AFBA6
:100B200016EA0B08F1D04E68664511DC122E51D83A
:100B3000DFE806F0340A49465050505050505050AB
:100B40005050505050424D00D1F80C9042E000BF40
:100B50004FF6FF72C1F2210296420FDC0022C1F271
:100B6000110296421AD00022C1F21202964215D00A
:100B70000022C1F22102964210D02BE00022C1F2E5
:100B8000220296420AD00022C1F23102964205D0DA
:100B90000022C1F2320296421CD100BF8A6842B1E3
:100BA000012A14BFC0F814B0C0F810B04FF0080903
:100BB00010E04FF004090DE0CA6802F1040909E0F1
:100BC0004FF0000906E0CA6802F1080902E0CA68AD
:100BD00002F10C0902462646B8F5807F24BF043294
:100BE000203E17680F25B54027EA050509FA06F6E5
:100BF00035431560CA79D2067FF587AF41F21803F5
:100C0000C4F202031A68AEF57E7642F001021A6061
:100C10001A6802F001020192019A2AF0030256F8C2
:100C200002B040F60002C4F20102904208D040F641
:100C30000042C4F2010290427FF425AF01272AE767
:100C4000002728E702B0BDE8F08F000040F26020E6
:100C5000C2F200000068704740F2400040F260219C
:100C6000C2F20000C2F2000100780A681044086075
:100C70007047000080B542F20000C4F20200016833
:100C800041F010010160032000F070F80F2000F027
:100C900005F800F02BF8002080BD0000B0B540F250
:100CA0004002C2F2000240F204011278C2F20001D6
:100CB0004FF47A730968B3FBF2F20446B1FBF2F128
:100CC000084600F001FB0F2C4FF001050CD858B975
:100CD0004FF0FF3021460022002500F01BF840F2C3
:100CE0004400C2F2000004602846B0BD7047000016
:100CF000002848BF704700F01F01012202FA01F1ED
:100D00001C2202EAD0004EF20012CEF20002815004
:100D10007047000010B54EF60C5CCEF2000CDCF80B
:100D20000030C3F3022E8EF00704042C28BF0424E5
:100D3000BEF103034FF0FF3E0EFA04F438BF002368
:100D4000A14399400EFA03F39A43114300F1604224
:100D500000F00F03090102F56442043B63440028DC
:100D600048BF03F10C02117010BD00004EF60C518B
:100D7000CEF200010A684FF6FF031A4060F30A2220
:100D800042F0806040F0FD7008607047002804BFAA
:100D9000012070472DE9F04381B042F20008C4F20F
:100DA00002080446D8F800000D4600F00700814212
:100DB0000CD9D8F8000020F007002843C8F800003C
:100DC000D8F8000000F00700A8426BD1206841F27B
:100DD00004098107C4F2020917D5410705D5D9F8DE
:100DE000001041F4E061C9F80010010705D5D9F8F9
:100DF000001041F46051C9F80010D9F80010A26841
:100E000021F0F0011143C9F80010C00741D1D8F812
:100E1000000000F0070085420CD2D8F8000020F056
:100E200007002843C8F80000D8F8000000F00700C9
:100E3000A84237D12068410707D5D9F80010E268E9
:100E400021F4E0611143C9F80010000708D5D9F872
:100E50000000216920F4605040EAC100C9F8000098
:100E6000D9F8002002F00C00082841F20020C0F25E
:100E70007A0049D142F29E13C2F38341C0F60003C7
:100E8000595CD20334D440F60010C0F23D00484310
:100E90003AE0606859F8041C022807D0012824D1E0
:100EA000890305D4012001B0BDE8F0838901F9D59B
:100EB000D9F8001021F003010843C9F80000FFF73A
:100EC000C5FE064641F28837D9F80000616800F097
:100ED0000C00B0EB810F9AD0FFF7B8FE801BB84230
:100EE000F2D9032001B0BDE8F0838907DAD5DFE746
:100EF000D9F8002042F29C13C2F34042C0F600032E
:100F00009A5C4843B0FBF2F0D9F8001042F2841228
:100F1000C1F30311C0F60002515C40F2040220FA52
:100F200001F140F24400C2F200000068C2F2000287
:100F30001160FFF7B3FE002001B0BDE8F0830000B0
:100F400040F2040041F20401C2F20000C4F20201C6
:100F50000068096842F29412C1F30221C0F600024F
:100F6000515CC8407047000040F2040041F20401A7
:100F7000C2F20000C4F202010068096842F2941251
:100F8000C1F3C221C0F60002515CC84070470000A6
:100F9000002804BF012070472DE9F04182B00446CB
:100FA000007841F20006C007C4F2020647D070681C
:100FB00000F00C00042808D1306880033FD5606839
:100FC000E8BB012002B0BDE8F081706800F00C00C1
:100FD000082802D17068C003EED4656830682DB16E
:100FE000B5F5A02F09D0B5F5803F0AD020F48030A8
:100FF0003060306820F4802005E040F480203060CC
:10100000306840F480303060FFF720FE002D054648
:1010100012D000BF3068800311D4FFF717FE401BC9
:101020006428F7D916E100BFFFF710FE401B6428C3
:101030004FF0030000F2D88030688003F4D42078A9
:10104000800719D5706810F00C0F07D0706800F099
:101050000C00082827D17068C00324D430688007AA
:1010600003D52069012840F0A6803068616920F02E
:10107000F80040EAC1003060207800074ED5A06932
:1010800038B30020C4F242200121C0F88014FFF7D9
:10109000DDFD0546706A80072DD4FFF7D7FD401BA4
:1010A0000228F7D9D6E02069002840F20000C4F2F7
:1010B000422000F0A88001210160FFF7C7FD05462E
:1010C00030688007D1D4FFF7C1FD401B0228F7D953
:1010D000C0E00020C4F242200021C0F88014FFF7D5
:1010E000B5FD0546706A800718D5FFF7AFFD401BB8
:1010F0000228F7D9AEE040F20400C2F20000006816
:1011000044F6D351C1F26201A0FB0101480A0190EB
:1011100000BF0198411E00280191F9D120784007B5
:1011200017D4E5698DB1706800F00C00082846D12D
:10113000012D40D07068216A00F480328A423AD191
:10114000616A00F47010884235D1002002B0BDE819
:10115000F081F0695FEAC00808D4F06940F080507F
:10116000F061F06900F080500090009847F20007AD
:10117000C4F200073868C0050FD4386840F48070A6
:101180003860FFF763FD05463868C00505D4FFF7F2
:101190005DFD401B6428F7D95CE0E568306A1DB14D
:1011A000052D41D0012D43D020F001003062306A7E
:1011B00020F004003EE0012002B0BDE8F0810027ED
:1011C000C4F2422700203866FFF740FD022D054695
:1011D0000ED100BF3068800153D5FFF737FD401BAB
:1011E00002284FF00300F5D902B0BDE8F08100BF3E
:1011F00030688001A9D5FFF729FD401B02284FF078
:101200000300F5D9F0E700210160FFF71FFD054657
:10121000306880077FF530AFFFF718FD401B0228CC
:101220004FF00300F4D9DFE740F004003062306A89
:1012300040F001003062FFF709FD002D054641F244
:10124000883712D0306A800712D4FFF7FFFC401BAA
:10125000B842F7D9032002B0BDE8F081FFF7F6FCF1
:10126000401BB8424FF00300BED8306A8007F5D467
:10127000B8F1000F3FF555AFF06920F08050F061F4
:101280004FE7206AB0F5803F05D17168A26821F46C
:101290000031114371607168626A21F47411114365
:1012A0000843706001203866FFF7D0FC044600BF99
:1012B000306880013FF549AFFFF7C8FC001B0228EA
:1012C0004FF00300F4D98FE7411E0020B0EB116FFF
:1012D0001CBF012070474EF21002CEF20002516096
:1012E0004EF62351CEF20001F0230B7007219060DF
:1012F000116070477047000070470000B0B582B0C1
:1013000001680A68CC684B6902F02F05202D04F0B3
:10131000200505D125B102B0BDE8B04000F0BABA51
:101320005FEA027C1EBF03F0010E04F4907313EB1E
:101330000E0340D1036BD50618D5012B16D114F03E
:10134000100313D0002201920A6801924A680192A8
:10135000019A4969490647D4818DC28DC38D002BFE
:1013600018BF914240F0108102B0B0BD13062AD5DB
:1013700014F0800327D090F84120212AF4D182680C
:10138000B2F5805F03D10269002A00F03081026A61
:10139000531C036212784A60C28C013A1304C2845F
:1013A000E2D1C86820F08000C860C86840F0400002
:1013B000C86002B0B0BDD10718BF14F480715CD111
:1013C000510760D466E05206CED514F04002CBD06F
:1013D000CA6822F04002CA60202180F8411002B0A1
:1013E000BDE8B04000F040BAC16B0A68526893B2E1
:1013F000002BB9D0858DAB42B6D2C2858969202930
:1014000034D000BF016851E8031F026821F48071E5
:1014100042E80313002BF5D1016851E8051F02686B
:1014200021F0010142E80513002BF5D1016851E8D4
:10143000051F026821F0400142E80513002BF5D199
:10144000202180F842100021016300BF016851E8AB
:10145000031F026821F0100142E80313002BF5D1AD
:10146000C16B04460846FFF761FA2046022141633A
:10147000818DC28D891A89B2AFE0416C41F00101C2
:101480004164510706D5BEF1000F03D0416C41F015
:1014900002014164910706D5BEF1000F03D0416CF3
:1014A00041F004014164BCF1000F06D55EEA05017C
:1014B00003D0416C41F008014164416C00293FF4C4
:1014C00053AF910604D51DB1044600F0E3F9204660
:1014D00001684969426C01F0400102F00802891874
:1014E0004BD000BF016851E8031F026821F49071DE
:1014F00042E80313002BF5D1016851E8051F02688B
:1015000021F0010142E80513002BF5D1016B0129FF
:101510000AD100BF016851E8031F026821F01001E1
:1015200042E80313002BF5D1202180F8421000215E
:10153000016301684969490654D500BF016851E853
:10154000051F026821F0400142E80513002BF5D188
:10155000C16B002946D041F68902C0F6000204465C
:1015600008464A63FFF702FA00283FF4FDAEE06B3D
:10157000416B02B0BDE8B04008470446FFF7BCFE2F
:101580000020606402B0B0BD891A00BF026852E852
:10159000032F036822F4907243E80325002DF5D150
:1015A000026852E8052F036822F0010243E805258E
:1015B000002DF5D1202280F842200022026300BFD6
:1015C000026852E8032F036822F0100243E8032563
:1015D000002DF5D1022289B2426302B0BDE8B040CD
:1015E000FFF788BE02B0BDE8B040FFF785BE026AD3
:1015F00032F8023B6FF35F234B600262CCE60000DF
:10160000002804BF0120704710B5044690F841003F
:1016100028B9002084F84000204600F061F824201A
:1016200084F841002068D4E90212C36823F400530F
:10163000C360036923F440531A430261D4E90423CD
:101640001143C268194341F20C639A431143C160CC
:101650004169A26921F44071114343F60002C4F2CA
:1016600001029042416102D0FFF76AFC01E0FFF7FE
:101670007BFCD4E90023192148439900B0FBF1F029
:1016800048F21F5CC5F2EB1CA0FB0C314FF69C73BB
:101690004909C0F6FF7301FB0300322303EB00107E
:1016A000A0FB0C03F02000EA531000EB0110C3F381
:1016B0004311084490601069202120F4904010618B
:1016C000506920F02A005061D06840F40050D0608A
:1016D0000020606484F8411084F84210606310BDFB
:1016E0007047000090F84230202B07D100294FF0BE
:1016F000010318BF002A04D1184670470223184678
:10170000704700230363816222218285C28543647E
:1017100080F84210016921B10168CA6842F4807200
:10172000CA600068416941F001014161C16841F04E
:101730002001C16018467047006844F20041C4F2BD
:101740000001884218BF704710B540F26014C2F221
:101750000004217840F25020C2F2000000F090FB1B
:1017600040F2C010C2F2000021460122BDE8104044
:10177000FFF7B8BF2DE9F04381B0044690F841006F
:10178000202809D1884600294FF0010018BF002AFF
:1017900006D101B0BDE8F083022001B0BDE8F083BE
:1017A0000020606421201D4684F841001646FFF7A2
:1017B0004DFAA684E684A1680646B1F5805F02D1A1
:1017C000206900284DD0C1464FF00008E08C40B39E
:1017D0006F1C0BE0B9F1000F1AD019F8010B21684A
:1017E0004860E08C0138E084E08CD0B1206800686B
:1017F0000006EFD4002FF9D0FFF728FA01464FF08A
:10180000030045B3891BA94225D82068C068EDE7CD
:1018100038F8020B21686FF35F2048604FF0000931
:10182000DFE720680068400614D46F1C04E000BFA6
:101830002068006840060DD4002FF9D0FFF706FAA3
:1018400001464FF0030035B1891BA94203D8206837
:10185000C068EDE70020202184F8411001B0BDE808
:10186000F0834FF00009B1E770470000FEE7000089
:10187000FEE700007047000070470000704700005E
:10188000FFF7EAB970470000406A0021C185C184B2
:10189000FFF732BD90F84210222918BF70478268C6
:1018A000B2F5805F02D1016900294AD0816AB2F5A0
:1018B000805F07D00AB9026922B10268526802F05B
:1018C0007F0201E0026852680A70816A0131816218
:1018D000C18D01390A04C18500D070470168CA680A
:1018E00022F02002CA60CA6822F48072CA604A6983
:1018F00022F001024A61202180F842100021416358
:10190000026B012A18BFFFF717BF81B0016300BF48
:10191000016851E8031F026821F0100142E8031337
:10192000002BF5D101680A68D20606D50022009284
:101930000A680092496800910099818D01B0FFF713
:10194000D9BC0168826A49686FF35F2122F8021BE3
:101950008262BDE740F2C010C2F20000FFF7CEBCC9
:10196000FEE7000080B582B0019040F27810C2F22C
:10197000000001A901224FF47A73FFF7FBFE0198E2
:1019800002B080BD90B0FFF775F901AC002520468C
:1019900028210F95CDE90D55CDE90B55FEF7F5FB47
:1019A000012001904FF480300226CDE90205CDE9F7
:1019B00008604FF4E0100A902046FFF7E9FA00B102
:1019C000FEE70F20CDE90B064FF480600E900BA8C8
:1019D00002210D950F95FFF7D9F900B1FEE7FEF74B
:1019E0004BFC00F097F8FEF79DFC00BF00F0F8F804
:1019F000FEF7E6FEFAE70000844613294FF0FF30B9
:101A00001BD3BCF1000F18D0BAB10E2B38BF7047F2
:101A10009CF80000A52811D19CF801005A280DD18E
:101A2000BCF80E009081DCF80200DCF80A10DCF84B
:101A3000063010600E209160536070474FF0FF3009
:101A40007047000000284FF0FF3318BF002901D174
:101A500018467047002AFBD080B54FF0000E02E018
:101A60006145E6460DD010F80E300EF1010CA52BA5
:101A7000F6D18C4506D200EB0E035B785A2BEFD1E2
:101A800000E08E46A1EB0E011329C2F800E002D25D
:101A90006FF0010328E010F80E10A52922D100EB09
:101AA0000E0C9CF801105A291CD19CF80210012937
:101AB00018D19CF811100D2914D19CF812100A2984
:101AC00010D10CF1010200210E2312F8010F013B8D
:101AD00081EA0001F9D19CF810000B1A18BF6FF0D1
:101AE000020301E06FF00203BDE880401846704732
:101AF000024600284FF000000BD0132909D31078BC
:101B0000A5284FF0000018BF704751785A2908BF28
:101B100013207047F0B585B0002641F21800CDE9DA
:101B20000366CDE90166C4F20200416840F6000494
:101B300041F4003141604168C4F2010401F4003114
:101B400000910099016801AD41F004010160006855
:101B5000012700F00400009000980420019002206A
:101B6000029003200490204629460397FEF76CFF5D
:101B7000082001A9C1C120462946FEF765FF26209D
:101B800001210022FFF7C6F82620FFF7B1F8A4F5DF
:101B9000444040F2C014C2F200044FF4E1310C2280
:101BA00084E843002046C4E90366C4E90526E661EB
:101BB000FFF726FD40F26011C2F20001204601222B
:101BC000FFF790FD40F2502040F26001C2F20000A9
:101BD000C2F200014FF4807200F00AF905B0F0BDC6
:101BE0002DE9F043B1B0002510A880213095802464
:101BF000FEF7CBFA40F25020C2F20000CDE90E55BC
:101C0000CDE90C55CDE90A55CDE9085500F092F81B
:101C1000C0B1802838BF044640F2502010ADC2F257
:101C200000002946224600F0EBF830AA284621465B
:101C3000FFF708FF309941B140F25020C2F2000096
:101C400000F098F831B0BDE8F083C11C64D0811C6D
:101C5000F8D0002862D410A808AA21462023FFF754
:101C6000CBFE0E284FD19DF82000012840F26410D1
:101C7000C2F200001AD1BDF8211001809DF8231096
:101C80009DF82C209DF82D308170BDF824108180A6
:101C9000BDF82610C180BDF828100181BDF82A10BA
:101CA000418102734373016901310161016945F6A4
:101CB0002942CCF28F22514347F2A302C0F63D22C3
:101CC000914220D8018882788378B0F90450B0F925
:101CD00006C0B0F908E0B0F90A60077B90F80D8003
:101CE000D0F8109003A880E8C00142F2AE1002F0D4
:101CF0000102C3F34003C0F600008DE82050CDF888
:101D0000189000F0F7F810A82146FFF7F1FE014601
:101D1000012898BF01218FE701218DE740F2502073
:101D2000C2F2000000F0DCF8012821463FF484AF45
:101D300088E70000D0E90123844683EA02010220FB
:101D4000022938BF01F00100002808BF70470128B0
:101D500002D1DCF80C0070475808B0EB520F4FEA84
:101D6000520284BF801A7047DCF80C10801A0844B5
:101D70007047000080B5D0E901CE02238EEA0C0244
:101D8000022A38BF02F0010363B1012B02D1C368FC
:101D90004BB92AE04FEA5E02B2EB5C0F4FEA5C03FC
:101DA0001CD9D31A0BB3C2688B4238BF1946A2EBB9
:101DB0005C038B424FEA5C0305D9CA180CF001039F
:101DC00043EA420207E00B440CF0010C9A1A4CEA79
:101DD000420282F001024260084680BDD0F80CE069
:101DE000D21A02EB0E03002BDDD1002080BD0000D3
:101DF000002322F00302C0E90013C0E90232704759
:101E000070B5D0E90134164684EA03050222022D9A
:101E100038BF05F001025AB1012A02D1C26842B9A5
:101E20002CE06208B2EB530F4FEA530421D9121B86
:101E300022B3B24238BF1646C2680568A2EB53020D
:101E4000B24205EB530303D90846194632460CE06B
:101E5000044608460D461946FEF77EF9D4E90010FF
:101E6000E268A2EB5002A818B21AFEF775F93046E4
:101E700070BDC568121B2A44002ADAD1002070BD4B
:101E800010B500F1040E9EE8045002238CEA02040F
:101E9000022C38BF04F001036BB1012B73460AD04A
:101EA0004FEA5C03B3EB520F4FEA52029ABFAEEB1C
:101EB000020213449B1A9E4504BF002010BD026815
:101EC0004FEA5C03D154D0E90212013AB2EB510F50
:101ED00012BF0231012222EA01018160012010BDFE
:101EE0008168406841400220022938BF01F00100AA
:101EF000704700000FB4054B10B503A9044A0298BF
:101F000000F018F810BC5DF814FB0000651900081B
:101F10000000002002E008C8121F08C1002AFAD100
:101F200070477047002001E001C1121F002AFBD159
:101F3000704700002DE9FF4F8BB09A460F460446CC
:101F4000002606E025280BD052460D999047641CC8
:101F5000761C20780028F5D10FB03046BDE8F08F10
:101F60000025A94601227D4900E0054314F8013F00
:101F7000203B02FA03F00842F7D120782E2817D12F
:101F800014F8010F45F004052A280ED06FF02F0237
:101F90002078A0F1300109290AD809EB890102EB68
:101FA000410100EB0109641CF2E757F8049B641C33
:101FB00020786C280DD004DC4C2812D06A2811D16E
:101FC00004E074280DD07A280CD10AE045F40015FD
:101FD00007E0617845F48015814202D1641C05F563
:101FE0008015641C207869283ED006DC0028B3D018
:101FF00063280BD0642804D136E0732810D07528EC
:102000005CD052460D999047761CA5E017F8040B5A
:102010008DF8000000208DF80100E846012003E063
:1020200057F8048B4FF0FF3069074FF0000501D4DB
:102030000AE06D1C4D450DDA8542FADB18F80510F3
:102040000029F6D106E06D1C8542FCDB18F805106E
:102050000029F8D12E4404E018F8010B52460D99DE
:1020600090476D1EF8D277E000200A90C5F3025029
:102070004FF00A0B02280CD001CFC117021E71F1DC
:1020800000020CDA0023D0EB030063EB01012D22E8
:1020900008E0FF1D27F00707F7E80201EEE72A0531
:1020A00004D52B228DF82420012203E0EA070FD06B
:1020B0002022F7E70DF12008089218E000200A908E
:1020C000C5F302504FF00A0B022803D001CF0021C4
:1020D0000022EFE7FF1D27F00707F7E80201F7E707
:1020E0005A460A9BFEF75CF8303208F8012D50EA98
:1020F0000102F5D1ADEB080000F1200B680701D417
:102100004FF00109D94502DDA9EB0B0000E00020EA
:102110008146002506E009A85246405D0D9990478A
:102120006D1C761C08988542F5DB04E03020524691
:102130000D999047761CB9F10001A9F10109F5DC70
:1021400005E018F8010B52460D999047761CBBF13B
:102150000001ABF1010BF4DC641CFAE60928010074
:1021600010B5044601E0FFF7FDFB14F8010B04492C
:102170000028F8D1BDE810400A20FFF7F3BB0000AB
:102180000000002000000000000000000102030425
:10219000060708090000000001020304010202030F
:1021A0000405060708090A0B0C0D0E0F10107365C5
:1021B000713D257520666F756E643D2575207374BD
:1021C00061626C653D25752063783D2564206379E7
:1021D0003D25642064783D25642064793D25642094
:1021E000636F6E663D2575206670733D25752063AF
:1021F0006F756E743D256C750D0A004633324320B1
:102200007561727433207478206572726F723D2527
:10221000640D0A0047494D42414C2076633D256CD0
:102220007520666F756E643D257520636F6E663D23
:1022300025752064783D25642064793D25642074EB
:102240006774313D256C6420746774323D256C647D
:1022500020737064313D256420737064323D2564C1
:10226000206167653D256C750D0A004633324320B9
:10227000696E697420646F6E650D0000A02200080D
:102280000000002048000000141F0008E822000899
:102290004800002020060000241F00080000000065
:1022A0000000000000127A007A01067D7B7A0100AE
:1022B00000007B7B7A010200000000007B7A0101B4
:1022C0000000007B7A02067E7B7A02000000787BA9
:1022D0007A020200000000007B7A02010000007B0D
:0822E0000100000010000000E5
:0400000508000121CD
:00000001FF
